:100200000C9468010C9490010C9490010C94900152
:100210000C9490010C9490010C9439270C9490014B
:100220000C9490010C9490010C9490010C9490010A
:100230000C9490010C9490010C9490010C949001FA
:100240000C9490010C94D0270C94AA270C94900144
:100250000C94CA260C9490010C9490010C9490017B
:100260000C94EF260C9458260C9484270C945E274B
:100270000C9490010C9480260C9490010C949001A5
:100280000C9490010C9490010C9414270C94A526C6
:100290000C9490010C9490010C9490010C9490019A
:1002A000084AD73B3BCE016E84BCBFFDC12F3D6CDD
:1002B00074319ABD56833DDA3D00C77F11BED9E443
:1002C000BB4C3E916BAAAABE000000803F00B9283B
:1002D00011241FBECFEFCDBFDFE3DEBF27E3ACE1CC
:1002E000B8E201C01D92A43EB207E1F718E2A0E017
:1002F000B8E2ECE4FEE802C005900D92AC31B10723
:10030000D9F711E0C8E6D1E004C02197FE010E94B0
:100310008242C736D107C9F70E946C2A0C94654601
:100320000C94000100008093C4088091C30887FFEB
:10033000FCCF8091C4080895CF93DF93D82FC92FA5
:100340008091C00886FD0DC0892F0E949201C82FA0
:100350008D2F0E949201D82F8D2F9C2FDF91CF914E
:1003600008958D2F0E949201D82F8C2F0E94920108
:10037000C82FF2CF282F30E0F901EC59F2439081D9
:100380009F3F11F1255C3243F9018081E82FEE0F88
:10039000EE0FEE0FE90FEF32B8F4F0E0EE0FFF1FB3
:1003A000E551F54D25EE31E02083318320E2829F37
:1003B000F0011124FC5F7096E90FF11D8081887FA8
:1003C000808380818160808308958091680490E0BB
:1003D00095958795959587958F708093DA280895E0
:1003E000E0E6F4E08081837C808389E88093720476
:1003F00080937304809374048093750488E10E9451
:10040000BA0189E10E94BA018AE10E94BA018BE136
:100410000C94BA01E091272DF091282D309719F016
:1004200082E69DE209958091632D823F09F4BAC06E
:1004300090F5803C09F499C0B8F4803909F44FC0B4
:1004400040F4E0912B2DF0912C2D803809F44BC015
:100450000895803A09F484C0E091312DF091322D55
:10046000803B09F440C00895803E09F462C040F426
:10047000E091352DF091362D803D09F47AC0089534
:10048000803F09F47DC0E0913B2DF0913C2D813FF0
:1004900009F49BC008958A3FC1F1A8F4863F09F48E
:1004A00099C040F4E0913F2DF091402D833F09F435
:1004B0008CC00895883F09F1E091472DF091482DB7
:1004C000893FF9F008958C3F51F120F18E3F61F1A1
:1004D000E0914F2DF091502D8F3F99F00895E091CC
:1004E0002D2DF0912E2D309709F479C04091652D76
:1004F0006091642D8091622D0994E091432DF091DB
:10050000442D309709F46BC00994E091452DF0918A
:10051000462DF7CFE091492DF0914A2DF2CFE09191
:100520004B2DF0914C2DEDCFE0914D2DF0914E2DB6
:10053000E8CFE091372DF091382D309709F44FC076
:100540006091652D20E8629FB001112460787F736F
:100550008091642D8F77682B70528091622D099461
:10056000E0912F2DF091302DBECFE091332DF09101
:10057000342D3097A1F16091642D8091622D099402
:10058000E091392DF0913A2D309749F16091642D29
:100590007091652D6138710510F060E870E086E6B5
:1005A0009DE20994E0913D2DF0913E2D3097B9F0F8
:1005B0008091652D20E8829FC001112480789F736F
:1005C0002091642D2F77822B0994309741F08091F0
:1005D000642D0994E091412DF091422D92CF089520
:1005E000FC01508D418D252F30E0842F90E0821B3F
:1005F000930B541710F0CF96089501970895FC01BE
:1006000096898789981761F0A789AE0FBF2FB11D12
:100610005D968C9197899F5F9F73978B90E008956B
:100620008FEF9FEF0895FC0196898789981731F025
:100630008789E80FF11D858D90E008958FEF9FEF7A
:100640000895FC0196892789892F90E0805C9F4F4F
:10065000821B91098F7399270895CF93DF93EC0143
:10066000E881F9810680F781E02D0995EC85FD850B
:1006700086818F738683EC85FD8585818F75858363
:100680008F898E8B1D8ADF91CF910895FC01613097
:1006900019F4648B81E00895148A6623D9F380E00D
:1006A0000895DC0154961C92549754968C9154975B
:1006B0008230A0F4282F30E0F901EE0FFF1FE20F87
:1006C000F31FEA0FFB1F9785961303C096859417B7
:1006D00049F08F5F54968C935497E7CF54961C92B1
:1006E00080E0089581E00895CF93DF93FC01908D21
:1006F000818DC485D585981306C08D818F7D8D83AE
:10070000DF91CF910895A18DAE0FBF2FB11DA35AD8
:10071000BF4F2C91818D90E001968F739927818F27
:1007200080E48C83A485B58512962C93908D818D61
:100730009813E6CFA485B58515968C9115978F7D76
:1007400015968C93838D8823D9F2848D8093130121
:10075000138ED6CFDC011C96ED91FC910FB607FEEF
:1007600003C0258125FD04C0248125FD0C9474035C
:100770000895EF92FF920F931F93CF93DF93EC01B5
:1007800081E08D8B988D898D98131CC0AC85BD85BB
:1007900014968C91149785FF15C012966C93AC85B6
:1007A000BD8580E414968C93EC85FD8585818F7DD5
:1007B000858381E090E0DF91CF911F910F91FF90B1
:1007C000EF9008958091110180FF08C0809113017E
:1007D0008C8F8A8D8093130181E08B8FF62E088D8C
:1007E00010E00F5F1F4F0F731127E02E898D8E11C0
:1007F00004C0CE010E94AA03F9CFE88DEC0FFD2FB3
:10080000F11DE35AFF4FF082088FEC85FD8585814D
:100810008062CECFCF93DF93FC0125892223C9F0DC
:10082000EC018091110180FF08C080911301848F39
:10083000828D8093130181E0838FEC85FD85858116
:1008400085FD03C0848186FD04C0CE010E94AA03F9
:10085000F4CFDF91CF91089582E59BE20E942103BE
:1008600021E0892B09F420E0822F089587EF9DE293
:100870000E94210321E0892B09F420E0822F0895B2
:1008800080E090E0892B29F00E942C0481110E94C5
:10089000000080E090E0892B29F00E94360481114D
:1008A0000E94000080E090E0892B49F080E090E019
:1008B000892B29F00E94000081110E94000080E035
:1008C00090E0892B49F080E090E0892B29F00E948C
:1008D000000081110C9400000895282F30E0F901E8
:1008E000EE5FF24340814F3F09F450C0893258F423
:1008F000F901E752F343E081EE2329F0E13099F06A
:1009000010F0E63020F1F901E55CF243E081A0E26D
:10091000EA9FF0011124FC5F8081842321F16111A1
:1009200020C046830895F901EC59F24350815330B9
:1009300008F05F5F7091010A81E090E001C0880FCC
:100940005A95EAF7809587238093010ADCCF80E1EE
:10095000E89FF0011124E05AF54F81818F7E818359
:10096000D2CF458308952C593243D9018C913097C9
:1009700071F08F3F61F07096E80FF11D9FB7F8940A
:100980008081611107C0877F80839FBF0895F0E059
:10099000E0E0F4CF8860F8CFCF93DF9390E0FC01E4
:1009A000EE5FF24320812F3F69F0FC01E55CF243EA
:1009B000A08130E2A39FD0011124BC5F613029F4F3
:1009C00011962C93DF91CF9108958C599243EC01AD
:1009D000E881EF3F81F0CD014096E80FF92FF11D3E
:1009E0009FB7F89412962C938081623039F4886016
:1009F00080839FBFE7CFF0E0E0E0F2CF877FF8CFC2
:100A0000893210F40C946D040895893210F40C941A
:100A1000CC040895AF92BF92CF92DF92EF92FF92F3
:100A20000F931F93CF93DF93EC016A017B01A22EFA
:100A30008D89882339F0E881F9810688F789E02DCE
:100A4000CE0109950C8910E0BFB6F89460E078E615
:100A500089E899E0A70196010E94414269017A0163
:100A60008FEFC81AD80AE80AF80AF694E794D794E0
:100A7000C794EC85FD8586818D7F8683EC85FD8519
:100A8000868186831D8AA09125110A2E000CBB0B3E
:100A9000A70196010E94884220E034E040E050E047
:100AA0000E946342EC85FD85C20ED31EE41EF51E36
:100AB000C086D186EC85FD85A782EC85FD85868183
:100AC000806C8683EC85FD85858180688583909127
:100AD000E2058B89809589239801220F331F020F2D
:100AE000131FC00FD11F9889892B8093E20562E004
:100AF0008E850E94050561E08F850E94000561E0FA
:100B00008F850E940505BFBEDF91CF911F910F9188
:100B1000FF90EF90DF90CF90BF90AF9008958091BD
:100B20000B0680FFFCCF809110069091110608956E
:100B30006FB7F8942091D92A3091DA2A4091DB2AB4
:100B40005091DC2A8091AA0A9091AB0A7091A60A72
:100B500070FF08C02F5F3F4F4F4F5F4F8091AA0A31
:100B60009091AB0A6FBFE92FFF27BC01A4E07695F7
:100B70006795AA95E1F7E60FF71FBC01B6E07695F9
:100B80006795BA95E1F7E61BF70B892F99278695AC
:100B90008695E81BF90BA8EEB3E00E94C2416E0FE8
:100BA0007F1F811D911D08952FB7F8946091D92A58
:100BB0007091DA2A8091DB2A9091DC2A2FBF089568
:100BC000CF93DF93EC010E94D405688379838A83F5
:100BD0009B83CE01DF91CF9108950895AF92BF928C
:100BE000CF92DF92EF92FF920F931F93CF93DF93F9
:100BF0006C017B018B01040F151FEB015E01AE1828
:100C0000BF08C017D10759F06991D601ED91FC9149
:100C10000190F081E02DC6010995892B79F7C50176
:100C2000DF91CF911F910F91FF90EF90DF90CF90C8
:100C3000BF90AF900895EF92FF920F931F93CF93C1
:100C4000DF9390E2899FE0011124DC5FE984082FA3
:100C5000000F000F000FFF24F39410E08E2D8F2162
:100C600079F0E02FE10FF0E0EE0FFF1FE551F54DB9
:100C700080819181892B21F00190F081E02D0995EF
:100C80001F5FFF0C183051F7E986DF91CF911F915C
:100C90000F91FF90EF900895FC01A485B585119602
:100CA0008C91119781FD0FC09C9186898F5F8F7306
:100CB0002789281749F0A689AE0FBF2FB11D5D9671
:100CC0009C93868B08958C91089581E008958F926E
:100CD0009F92AF92BF92CF92DF92EF92FF920F93CB
:100CE0001F93CF93DF93FC018681882319F081FF46
:100CF0000EC07894DF91CF911F910F91FF90EF90EC
:100D0000DF90CF90BF90AF909F908F90089580FF1D
:100D1000F1CF80849184A284B384C12CD12C76013C
:100D200010E09401A501B601C701A0E00E94AD4208
:100D300099F1217030E040E050E060E070E080E048
:100D400090E00E94AD42D9F0D0E0C0E0103370F4E2
:100D5000C12FC695C695C69580E2C89FE0011124B3
:100D6000C05FDB4F812F8770C80FD11DCF01810F6E
:100D7000911DDC0150968C919881892B8883940178
:100D8000A501B601C70101E00E94924249015A0142
:100D90006B017C011F5FC5CF84849584A684B784D2
:100DA000C12CD12C760110E29401A501B601C70136
:100DB000A0E00E94AD4209F49DCF217030E040E0F8
:100DC00050E060E070E080E090E00E94AD42D9F039
:100DD000D0E0C0E0103370F4C12FC695C695C6951B
:100DE000B0E2CB9FE0011124C05FDB4F812F877001
:100DF000C80FD11DCF01810F911DDC0150968C9140
:100E00009881892B88839401A501B601C70101E06F
:100E10000E94924249015A016B017C011F5FC4CFBD
:100E200061E08091F12B0E94000588EF9BE20C9419
:100E300067068F929F92AF92BF92CF92DF92EF920E
:100E4000FF920F931F93CF93DF93FC01C62F172FB1
:100E50008681882319F081FF12C0F894C093C008DE
:100E60001093C108DF91CF911F910F91FF90EF90E8
:100E7000DF90CF90BF90AF909F908F90089580FFAC
:100E8000EDCF80849184A284B384C12CD12C7601CF
:100E9000D0E09401A501B601C701A0E00E94AD42D7
:100EA000B1F1217030E040E050E060E070E080E0BF
:100EB00090E00E94AD42F1F090E080E0D03370F419
:100EC0008D2F86958695869520E2829FC0011124FC
:100ED000805F9B4F2D2F2770820F911DDC014C915D
:100EE0009F012D0F311DD90150964C93DC012C919F
:100EF000287F2C939401A501B601C70101E00E944F
:100F0000924249015A016B017C01DF5FC2CF8484A8
:100F10009584A684B784C12CD12C7601D0E29401AB
:100F2000A501B601C701A0E00E94AD4209F496CF29
:100F3000217030E040E050E060E070E080E090E060
:100F40000E94AD42F1F090E080E0D03370F48D2F3C
:100F5000869586958695B0E28B9FC0011124805FAF
:100F60009B4F2D2F2770820F911DDC014C919F010B
:100F70002D0F311DD90150964C93DC012C91287F07
:100F80002C939401A501B601C70101E00E94924291
:100F900049015A016B017C01DF5FC1CF6F927F92E3
:100FA0008F929F92AF92BF92CF92DF92EF92FF9279
:100FB0000F931F93CF93DF936B017C013A0189015B
:100FC0006091392C70913A2C8091372C9091382C6B
:100FD0000E94190760E080913B2C0E9400058D2C37
:100FE0009E2CAF2CBB248091492C81112CC083E016
:100FF0000E949201882D0E9492018C2D0E949201E4
:10100000E301060D171D80E00E9492018993C0172D
:10101000D107C9F761E080913B2C0E9400058091C7
:10102000372C9091382CDF91CF911F910F91FF9029
:10103000EF90DF90CF90BF90AF909F908F907F9078
:101040006F900C94670683E089288A288B2899F290
:10105000D701C60129E0B695A795979587952A955A
:10106000D1F7892B8A2B8B2B11F08BE1C4CF8BE02E
:10107000C2CFCF93DF931F92CDB7DEB721E030E030
:10108000AE014F5F5F4F0E94CE0789810F90DF91C5
:10109000CF9108951F93CF93DF93C7E3DCE26A817A
:1010A0007B81888199810E94190760E08C810E9470
:1010B000000585E00E94920180E00E949201182FB5
:1010C00061E08C810E940005888199810E946706F9
:1010D000812FDF91CF911F91089500000000000043
:1010E000000083EF90E00197F1F70E944A088170B9
:1010F0000895CF93C82F6091392C70913A2C80912C
:10110000372C9091382C0E94190760E080913B2C7D
:101110000E9400058C2F0E94920161E080913B2C7F
:101120000E9400058091372C9091382C0E94670610
:101130000E946D088111FCCFCF9108953F924F928C
:101140005F926F927F928F929F92AF92BF92CF9257
:10115000DF92EF92FF920F931F93CF93DF932B01B8
:101160003C016A018901D0E0C0E0E090432CF0909E
:10117000442C970150E040E0C301B2010E9441427B
:10118000E61AF70A0E151F0508F4780186E00E949A
:1011900079086091392C70913A2C8091372C90917C
:1011A000382C0E94190760E080913B2C0E940005BA
:1011B000BB24A72C962C852C342C8091492C811192
:1011C0001AC082E00E949201882D0E949201842D13
:1011D0000E9492015601AC0EBD1ECE0DDF1DC50151
:1011E0008C199D098C179D07F8F4F50181915F0119
:1011F0000E949201F4CF82E089288A288B2871F01E
:10120000D301C20129E0B695A795979587952A95B0
:10121000D1F7892B8A2B8B2B29F08BE10E9492012D
:10122000832DD6CF8BE0FACF61E080913B2C0E94DA
:1012300000058091372C9091382C0E9467064E0C47
:101240005F1C611C711C0E191F090E946D08811121
:10125000FCCF0115110509F088CFDF91CF911F91C7
:101260000F91FF90EF90DF90CF90BF90AF909F9045
:101270008F907F906F905F904F903F900895CF93A5
:10128000DF931F92CDB7DEB721E029838A599F4FA4
:10129000FC016081F9ED6F9FB00111246257744821
:1012A00090E080E021E030E0AE014F5F5F4F0E94B0
:1012B0009E080F90DF91CF910895BF92CF92DF9259
:1012C000EF92FF920F931F93CF93DF9300D0CDB790
:1012D000DEB77C0119821A8208E010E06C0186E614
:1012E000C80ED11C89EDB82EF6018081B8018B9D06
:1012F000600D711D11246854754890E080E022E073
:1013000030E0AE014F5F5F4F0E949E08C7010E9410
:101310003F090E5F1F4F0031110531F70F900F90FD
:10132000DF91CF911F910F91FF90EF90DF90CF90C1
:10133000BF900895BF92CF92DF92EF92FF920F93EA
:101340001F93CF93DF9300D0CDB7DEB77C01FC01B4
:10135000E355FF4F81E0808319821A8210E000E09C
:10136000670186E6C80ED11C89EDB82EF601808192
:10137000B8018B9D600D711D11246854754890E073
:1013800080E022E030E0AE014F5F5F4F0E949E0898
:10139000C7010E943F090E5F1F4F0830110531F74A
:1013A0000F900F90DF91CF911F910F91FF90EF90D1
:1013B000DF90CF90BF900895CF93DF93CDB7DEB786
:1013C000CA53DA40CDBFDEBFFE01EF5AFF4FCE0158
:1013D0008358954F2FE010822183DF01AE57BF4F16
:1013E0001C92E752FF4FE817F907A9F72AE33AE002
:1013F000AE014F5F5F4F64EE74E880E090E00E94C2
:10140000CE072AE33AE0AE014F5F5F4F6AE37AE02E
:1014100080E090E00E949E08C65CD54FCDBFDEBF45
:10142000DF91CF910895CF93DF93C1EFDBE26D8120
:101430007E8188EF9BE20E94190760E08881DF913E
:10144000CF910C940005CF930E94130A85E00E946F
:10145000920180E00E949201C82F0E9410078C2FF9
:10146000CF910895CF93C82F662331F060E086E0D6
:101470000E94320A0E941007CB3A21F00E94230AF0
:1014800080FDFCCF0E94130A8C2FCF910C94920107
:10149000FC01858181110CC016821782108611868D
:1014A00012861386148615861686178681E0858334
:1014B0008091E3058C7F9481892B8093E30584815F
:1014C00081111BC061E084E00E94CC0461E086E0F1
:1014D0000E94CC048091C10884608093C1088091EF
:1014E000C00881628093C0089091EF2B8091F02B0F
:1014F0009093C0088093C1080895813039F461E069
:101500008EE00E94CC0461E080E1E2CF823011F7EE
:1015100061E08EE10E94CC0461E080E2D9CFCF93FC
:10152000C091512B8091502BC81779F0C093502B4C
:101530000A9888EF9BE20E94480A8C2F0E94920131
:1015400088EF9BE20E9467060A9A80914F2B8823BE
:1015500009F447C010924F2B8091142890911528C0
:101560009C0121703327969587950097B9F1809358
:10157000142890931528232BD1F44091492B509196
:101580004A2B80914D2B90914E2B809590952091D8
:101590004B2B30914C2B2823392320934B2B30930A
:1015A0004C2B842395238093492B90934A2B88EFCF
:1015B0009BE20E94480A8091492B90914A2B0E94FD
:1015C0009C0180914B2B90914C2B0E949C012C9A5A
:1015D0002C9888EF9BE2CF910C94670680E194E809
:1015E000C6CFCF910895CF93DF931F92CDB7DEB7CB
:1015F00029838A599F4FFC018081F9ED8F9FC0019B
:1016000011248853954820E1429FA0011124642BA6
:10161000680F792F711D90E080E021E030E0AE018D
:101620004F5F5F4F0E949E080F90DF91CF9108950A
:10163000CF93DF9300D0CDB7DEB719821A8270E066
:10164000660F771F605475488A599F4FFC0180814F
:10165000F9ED8F9F600D711D112490E080E022E074
:1016600030E0AE014F5F5F4F0E94CE0789819A81C3
:101670000F900F90DF91CF910895CF93DF9300D01B
:10168000CDB7DEB719821A8270E0660F771F6854F3
:1016900075488A599F4FFC018081F9ED8F9F600D3D
:1016A000711D112490E080E022E030E0AE014F5F38
:1016B0005F4F0E94CE0789819A810F900F90DF9132
:1016C000CF9108952091E6283091E72880E02115F8
:1016D000310531F0922F9170890F36952795F7CF0C
:1016E0000895EF92FF921F93CF93DF93182FE62E6A
:1016F000F12CEE0CFF1CE701C354DA470E94620B89
:10170000A7014A51574DFA01608171819B01012E59
:1017100002C0369527950A94E2F721703327883066
:1017200050F56091E6287091E72881E090E0A0E014
:10173000B0E004C0880F991FAA1FBB1F1A95D2F7EB
:10174000232BA1F4862B972B8093E6289093E728F0
:10175000BE0190E080E022E030E00E949E0880E040
:10176000DF91CF911F91FF90EF9008958095909514
:1017700086239723E9CF81E0232B91F381E090E04A
:10178000A0E0B0E004C0880F991FAA1FBB1F1A95E4
:10179000D2F7809590958623972380839183BE010D
:1017A00090E080E022E030E00E949E08D9CFCF9305
:1017B000DF9300D0CDB7DEB720E1529FB0011124F6
:1017C000642B70E0675D7F4F660F771F8A599F4FCC
:1017D000FC018081F9ED8F9F600D711D112468540B
:1017E000754890E080E022E030E0AE014F5F5F4F4F
:1017F0000E94CE0729813A81622F6770A90173E0A8
:10180000569547957A95E1F747705527220F232F74
:10181000221F330B3195742F852F922F91700F90CB
:101820000F90DF91CF910895DF92EF92FF920F9387
:101830001F93CF93DF9300D0CDB7DEB78C01D42EAA
:10184000F52EE22E652F0E94180B41E050E060E07B
:1018500070E004C0440F551F661F771FDA94D2F75B
:10186000EE2049F1482B592B49835A836F2D70E0A4
:10187000660F771F60547548F801EA59FF4F808161
:1018800099ED899F600D711D112490E080E022E0A8
:1018900030E0AE014F5F5F4F0E949E08C8010E947A
:1018A0003F090F900F90DF91CF911F910F91FF9003
:1018B000EF90DF9008954095509548235923D4CF59
:1018C000DF92EF92FF920F931F93CF93DF9300D09D
:1018D000CDB7DEB78C01D42EF52EE22EFC01E355F8
:1018E000FF4F81E08083652FC8010E943D0B41E0DE
:1018F00050E060E070E004C0440F551F661F771F82
:10190000DA94D2F7EE2049F1482B592B49835A83B8
:10191000F801EA59FF4F80816F2D70E0660F771F45
:101920006854754899ED899F600D711D112490E0F0
:1019300080E022E030E0AE014F5F5F4F0E949E08E2
:10194000C8010E943F090F900F90DF91CF911F9126
:101950000F91FF90EF90DF900895409550954823A8
:101960005923D4CF0F931F93CF93DF9300D0CDB7DC
:10197000DEB78C0129833A8380E1589FB00111249E
:10198000642B70E0675D7F4F660F771FF801EA599F
:10199000FF4F808199ED899F600D711D112468545E
:1019A000754890E080E022E030E0AE014F5F5F4F8D
:1019B0000E949E08C8010E943F090F900F90DF917E
:1019C000CF911F910F910895CF92DF92EF920F93D5
:1019D0001F93CF93DF93EC016A01E62E812F922FA4
:1019E00023E0880F991F2A95E1F7887399270770DC
:1019F000082B002E000C110B232FCE010E94140C7B
:101A000098016E2DA601CE01DF91CF911F910F910C
:101A1000EF90DF90CF900C94B20C8F929F92AF9288
:101A2000BF92CF92DF92EF92FF920F931F93CF93CB
:101A3000DF937C01962E842EC22FD62F41E4C42E34
:101A4000D12C8D1608F444C00D2F10E0F801EE0FD4
:101A5000FF1FE056F34D20813181AC2EB12C94E074
:101A6000B594A7949A95E1F78C2F8F70B82E482FD4
:101A70005A2D60E0C7010E94B20CF80124E0F595F0
:101A8000E7952A95E1F7EE0FFF1FE25BF34D20810A
:101A900031818D2F8F7002C0369527958A95E2F798
:101AA00021704B2D5A2D60E0C7010E94600C8914F3
:101AB00058F0CF5F8C2F90E0B6010E942D42C82FC6
:101AC000891420F0DF5FBDCFC150F4CFD150B9CF22
:101AD000DF91CF911F910F91FF90EF90DF90CF900A
:101AE000BF90AF909F908F900895CF93DF93EC01BC
:101AF000AC01485A5F4FFC01EA59FF4F60818EE00C
:101B0000689FB0011124605F754890E080E02EE08E
:101B100030E00E94CE07FE01ED59FF4F80813C96D8
:101B200080837096DE01A15ABF4F9C9190833196BD
:101B300011969C919083329680833197CF59DF4FD5
:101B400088818083DF91CF910895FC01EA59FF4F8E
:101B500060812EE0629FB0011124605F7548339769
:101B6000DC01A159BF4F2C912083349750962C91C2
:101B70002083319611962C912083319611962C91C9
:101B80002083319611962C912083AC01485A5F4FE7
:101B900090E080E02EE030E00C949E082F923F927F
:101BA0004F925F926F927F928F929F92AF92BF926D
:101BB000CF92DF92EF92FF920F931F93CF93DF9319
:101BC000CDB7DEB7CF50D840CDBFDEBF182F0E94B3
:101BD000D405812F90E0B0E0A0E0AC0133272227AC
:101BE000C65FD74F288339834A835B83CA50D84066
:101BF00061E088ED0E94320A812F0E94920180E00C
:101C00000E94920180E00E9492010E941007C65F2C
:101C1000D74FA880B980CA50D84046EDC42ED12CE9
:101C2000E12CF12C2601370136ED431A51086108E9
:101C3000710810E000E0C65FD74F88819981AA81C2
:101C4000BB81CA50D840840D951DA61DB71DCE5F1F
:101C5000D74F88839983AA83BB83C250D84020E0A2
:101C600038E0AE014F5F5F4FC301B2010E94CE0763
:101C7000C501800F911FA0E0B1E0A81BB109CD0103
:101C8000C85FD74F18821982C850D840212C28E04D
:101C9000322E41018215930508F44C0161E082E087
:101CA0000E94320ACC5FD74F8881C450D8400E942E
:101CB0009201CD5FD74F8881C350D8400E949201D6
:101CC000CE5FD74F8881C250D8400E949201E1E098
:101CD000F0E0EC0FFD1FC85FD74F28813981C85055
:101CE000D840E20FF31FCA5FD74FE883F983C6508D
:101CF000D840C25FD74FE883F983CE50D840CA5F3F
:101D0000D74FA881B981C650D8408D91CA5FD74FAF
:101D1000A883B983C650D8400E949201CA5FD74FAA
:101D200088819981C650D840C25FD74FE881F98138
:101D3000CE50D8408E1B9F0B8815990500F30E944A
:101D40001007CE5FD74F288139814A815B81C2500D
:101D5000D840280D391D411D511DCE5FD74F288316
:101D600039834A835B83C250D840C85FD74F4881CC
:101D70005981C850D840480D591DC85FD74F488376
:101D80005983C850D8402818390880E091E009F0FC
:101D900080CF185F58E0550E611C711C011580E85A
:101DA000180709F048CFCF5FD74F1882C150D840ED
:101DB00021E030E0AE014F5F574FC701B6010E94EE
:101DC0009E089AE3C90E9AE0D91EE11CF11CA6EC0C
:101DD000AA1AA5EFBA0ABEE8CB16BBE7DB06E104F8
:101DE000F10409F01FCFC15FD74FCDBFDEBFDF9138
:101DF000CF911F910F91FF90EF90DF90CF90BF9008
:101E0000AF909F908F907F906F905F904F903F909A
:101E10002F900895DF92EF92FF920F931F93CF932D
:101E2000DF93CDB7DEB7CA5DD109CDBFDEBF8C0170
:101E3000C652DF4F6883CA5DD0407C0186E6E80E5B
:101E4000F11CF701608189EDD82E6D9DB001112440
:101E50006357744890E080E021E030E0AE014652E4
:101E60005F4F0E949E081982F70160816D9DB0014D
:101E700011246257744890E080E021E030E0AE0128
:101E80004F5F5F4F0E949E08C652DF4F8881CA5D38
:101E9000D040F801ED55FF4F8083F701F0808F0DA2
:101EA0009927991FD89EB001D99E700D112490E0FA
:101EB00080E029ED30E0AE014F5F5F4F0E94CE071A
:101EC000FD9CB00111246854754890E080E029ED34
:101ED00030E0AE014F5F5F4F0E949E08F801E45B67
:101EE000FF4FC652DF4F8881CA5DD0408083C65203
:101EF000DF4FCDBFDEBFDF91CF911F910F91FF90DC
:101F0000EF90DF900895DF92EF92FF920F931F936F
:101F1000CF93DF93CDB7DEB7CA5DD109CDBFDEBFAA
:101F20007C01C652DF4F6883CA5DD0408C010A59DC
:101F30001F4FF801608189EDD82E6D9DB0011124ED
:101F40006357744890E080E021E030E0AE014652F3
:101F50005F4F0E949E081982F80160816D9DB0015B
:101F600011246257744890E080E021E030E0AE0137
:101F70004F5F5F4F0E949E08F8016081C652DF4F9D
:101F80008881CA5DD040860F9927991FD89E80010D
:101F9000D99E100D11246D9DB0011124685475480F
:101FA00090E080E029ED30E0AE014F5F5F4F0E948E
:101FB000CE07B80190E080E029ED30E0AE014F5F40
:101FC0005F4F0E949E08C7010E94A50DC652DF4FB9
:101FD000CDBFDEBFDF91CF911F910F91FF90EF90AA
:101FE000DF9008959C01FC01EA54FF4F908181E04D
:101FF000982732978081892321F42B543F4FF90190
:10200000808108950F93E72FF82F372F862F90E0C8
:102010004217A0F40196622F70E06F5F7F4F0E941D
:102020002D42841710F084131CC031E03E0F0317BB
:10203000B0F0642F732F8F2F0F9108950197642FA5
:1020400070E06F5F7F4F0E942D42821710F0841363
:1020500008C03FEF3E0F031760F7302FEACF30E0A4
:10206000E8CF482FE6CF9C01A0E6B0E00E94FE41F9
:102070009B01AC0160E076E483EC93E20E94414274
:10208000A4E1B0E00E94C241AB01BC01DC01CA0185
:10209000B695A79597958795009721E0A207B1057A
:1020A00008F466C0DB01CA01F2E0B695A7959795E2
:1020B0008795FA95D1F7009721E0A207B10508F4BA
:1020C00063C0DB01CA01E3E0B695A79597958795B4
:1020D000EA95D1F7009721E0A207B10508F456C0B0
:1020E000DB01CA0134E0B695A795979587953A9597
:1020F000D1F7009721E0A207B10508F449C0DB0140
:10210000CA0126E0B695A795979587952A95D1F7A8
:10211000009721E0A207B105E8F1BB27A72F962F72
:10212000852F009721E0A207B105B0F18AE07695EE
:102130006795579547958A95D1F7409371285093A5
:102140007228609373287093742887E080937528B1
:102150008091000A8E7F8093000A80917528880FF5
:102160008093000A8091000A81608093000A08959C
:1021700022E0209375288093712890937228A09371
:102180007328B0937428E4CF23E0F3CF24E0F1CF99
:1021900025E0EFCF26E0EDCF27E0EBCFCF93DF9325
:1021A000C0917828D0917928C150DE4F8CE080937F
:1021B000060681E0809308060E948F05C81BD90B94
:1021C000D7FF03C0D195C195D109C230D8F08CE0BA
:1021D00080930606C1E0C09308060E948F058F5FBA
:1021E000914080937828909379288DE0809306061B
:1021F000C09308060E948F058F5F914080937628D8
:1022000090937728209178283091792880916A28B6
:10221000E82FF0E0EE0FFF1FE65AF74D40916B28D4
:1022200050916C28421B530B408351838F5F877002
:1022300080936A2880915A2890915B2840915C286D
:1022400050915D28840F951F40915E2850915F2822
:10225000840F951F4091602850916128840F951F2D
:102260004091622850916328840F951F4091642803
:1022700050916528840F951F4091662850916728DA
:10228000840F951F4091682850916928840F951FED
:1022900097FD079643E0959587954A95E1F797FF57
:1022A00003C0919581959109893050F020936B2856
:1022B00030936C2881E08093EA2ADF91CF910895D2
:1022C0001092EA2AFACF2091E82A3091E92A2823AD
:1022D000392341E0232B09F040E020915828309128
:1022E00059282823392381E0232B09F480E0842313
:1022F000089520915828309159282823392341E006
:10230000232B09F040E02091E82A3091E92A282384
:10231000392381E0232B09F480E084230895482F9A
:102320002091E42A3091E52A02C0369527958A95B6
:10233000E2F7209530958091E62A9091E72A02C035
:10234000969587954A95E2F7822381700895482FE4
:102350002091E62A3091E72A02C0369527958A9582
:10236000E2F7209530958091E42A9091E52A02C009
:10237000969587954A95E2F782238170089520917A
:10238000E42A3091E52AA90102C0569547958A951D
:10239000E2F7CA01817008958091582890915928D8
:1023A000809590952091E82A3091E92A8223932301
:1023B00008958091E42A9091E52A80959095209146
:1023C000E62A3091E72A8223932308952091E82A70
:1023D0003091E92A20935828309359284091E42AD3
:1023E0005091E52A4093E62A5093E72A60915728B6
:1023F00081E090E0A0E0B0E0062E04C0880F991FB5
:10240000AA1FBB1F0A94D2F7719B1EC0282B392B21
:102410003F732093E82A3093E92A709B1BC0842BDA
:10242000952B8093E42A9093E52A8AB18295817056
:102430008093DD2A6F5F603190F46093572880911C
:102440005728809384040895FC01E095F0952E238D
:102450003F23DECF8095909584239523E2CF109281
:102460005728EDCFCF93DF93CDB7DEB7CA53DA400D
:10247000CDBFDEBFFE01EF5AFF4F9E012358354FFF
:102480004FE010824183DF01AE57BF4F1C92E752ED
:10249000FF4FE217F307A9F7FC0120818AE39AE0D6
:1024A000289FB001299F700D112490E080E02AE35D
:1024B0003AE0AE014F5F5F4F0E94CE072AE33AE059
:1024C000AE014F5F5F4F64EE74E880E090E00E94E1
:1024D0009E08C65CD54FCDBFDEBFDF91CF9108957A
:1024E000CF93DF9300D0CDB7DEB719821A8220E1F7
:1024F000429FA0011124642B70E0675D7F4F660F3F
:10250000771F8A599F4FFC018081F9ED8F9F600DE5
:10251000711D11246854754890E080E022E030E09D
:10252000AE014F5F5F4F0E94CE0789819A810F9065
:102530000F90DF91CF91089587FF0AC09CE0980F1C
:10254000923030F08D3F21F0803F18F4807F089565
:1025500080E00895982F9F7E282F2F7C203839F017
:10256000803E29F081E0903C19F080E0089581E000
:1025700008950F931F93CF93DF93D92F2091E628CF
:102580003091E728232BD1F0C62F072F182F0E9458
:10259000620B682FC81730F08C2F0E940D42080F75
:1025A000111DC92F0B30110514F00AE010E017FFC0
:1025B00002C010E000E06C2F702F812F9D2FDF9163
:1025C000CF911F910F9108950F931F93CF93DF9396
:1025D000272F382F4091092850910A28240F351FA2
:1025E00080910828680F722F832F0E94B9128CE007
:1025F000789F702D1124872F860FC091E628D091E7
:10260000E7282097F1F050E040E0F0E0E0E001E062
:1026100010E0262F30E0D801042E02C0AA0FBB1F05
:102620000A94E2F7AC23BD23AB2B29F02E173F070A
:1026300009F4842F31964F5F5F4F4C30510559F7A5
:10264000870FDF91CF911F910F910895FF920F9304
:102650001F93CF93DF93F090E32A00910E281091FF
:102660000F286F2DC8010E943D0BCDEDD8E2888365
:1026700099836F2DC8010E94180B8A839B838091D8
:10268000E32A8C83DF91CF911F910F91FF900895E2
:102690000F931F93CF93DF931F92CDB7DEB78C01BB
:1026A0006983FC01EA59FF4F608189ED689FB001A1
:1026B00011246657744890E080E021E030E0AE01DC
:1026C0004F5F5F4F0E949E08C8010E943F090F9014
:1026D000DF91CF911F910F9108958A599F4FFC016F
:1026E0006081F9ED6F9FB00111246657744890E046
:1026F00080E00C9439088A599F4FFC016081F9ED04
:102700006F9FB0011124675F744890E080E00C94E3
:1027100039088A599F4FFC016081F9ED6F9FB00124
:102720001124685F744890E080E00C9439081F938E
:10273000CF93DF93EC010E947B13182FCE010E94F0
:102740008913811740F4CE010E9489138150DF91D3
:10275000CF911F910895CE010E9489138F5FF7CF0B
:102760000F931F93CF93DF931F92CDB7DEB78C01EA
:102770006983FC01EA59FF4F608189ED689FB001D0
:102780001124675F744890E080E021E030E0AE0102
:102790004F5F5F4F0E949E08C8010E943F090F9043
:1027A000DF91CF911F910F9108950F931F93CF93B6
:1027B000DF931F92CDB7DEB78C016983FC01EA5924
:1027C000FF4F608189ED689FB0011124685F7448F4
:1027D00090E080E021E030E0AE014F5F5F4F0E946B
:1027E0009E08C8010E943F090F90DF91CF911F9171
:1027F0000F9108951F93CF93DF9300D0CDB7DEB72D
:10280000162F19821A82642F70E0660F771F6854A2
:1028100075488A599F4FFC018081F9ED8F9F600DAB
:10282000711D112490E080E022E030E0AE014F5FA6
:102830005F4F0E94CE0789819A8102C09695879545
:102840001A95E2F781700F900F90DF91CF911F9151
:102850000895CF92DF92EF92FF920F931F93CF9341
:10286000DF93EC017C018BE9E80EF11CD701ED91BF
:10287000FC9100816E01BDE9CB0ED11CD601ED911A
:10288000FC9110811017B0F46E01B7E9CB0ED11C8A
:10289000D701ED91FC918081811760F1D601ED9116
:1028A000FC914181612FCE010E94FA13811116C063
:1028B0001F5FEECF7E0187E9E80EF11CD601ED9196
:1028C000FC9180818017B0F0D701ED91FC9141819E
:1028D000602FCE010E94FA13882351F080E0DF912F
:1028E000CF911F910F91FF90EF90DF90CF900895BF
:1028F0000F5FE4CF81E0F3CFAF92BF92CF92DF9230
:10290000EF92FF920F931F93CF93DF93EC010E94FE
:102910008913CE010E947B13CE010E946D136E01BC
:1029200085EBC80ED11CD6011C927E01B7E9EB0ED7
:10293000F11C5E01E4E9AE0EB11CD701AD92BC9270
:10294000FE01E159FF4F8081882309F4B7C0858DCE
:10295000811103C08FEFF5018083CE010E946D13BA
:10296000082FCE010E947B13182FCE010E948913DD
:10297000482FD5016D917D918C91212F0E940210DD
:10298000F501608371838283FE01E459FF4F8081EA
:102990008823D1F03397D701ED93FC93DE01A8593A
:1029A000BF4F3C9111972C918081231708F089C06B
:1029B00090E00196632F70E06F5F7F4F0E942D4281
:1029C000821708F48CC08083D701ED91FC918E01B1
:1029D0000A591F4FD8018C9190E0DC01AA0FBB1F50
:1029E000A80FB91FA256B74D2081318142812D9386
:1029F0003D934C939E012E5A3F4FD9016C91A0807C
:102A0000662309F46EC011968C911197882309F4FE
:102A100068C012968C918A0D9927991F70E00E94C8
:102A20002D42D90114962D913C9102C036952795DF
:102A30008A95E2F7B22FB170BB2E41816A2DCE018B
:102A40000E94FA13811102C0BB2069F1D801EC91F8
:102A5000F0E0EA51F74DA0E2B9E224E239E280E089
:102A60009D9142859423892B3C962A173B07C1F7F9
:102A7000811119C0FE01EC54FF4F8081882399F128
:102A800081E0F6018083FE01E955FF4F108211823B
:102A9000CF54DF4FD701ED91FC9180819181A281CC
:102AA00088839983AA83DF91CF911F910F91FF9023
:102AB000EF90DF90CF90BF90AF9008958091E22A81
:102AC00047CF321708F080CF8150990B622F70E00A
:102AD0006F5F7F4F0E942D42831708F074CF2083D1
:102AE00073CFB12CAACF81E0CDCFCF93DF9300D0AD
:102AF000CDB7DEB789839A838093EE289093EF2831
:102B000022E030E0AE014F5F5F4F65EC75E880E09A
:102B100090E00E949E080F900F90DF91CF91089552
:102B2000299888EF9BE20E94480A80917A280E94A7
:102B3000920188EF9BE20E946706299A08959C0102
:102B40002F3F320741F12430310549F0253031055E
:102B5000E1F02730310529F424E030E002C025E01F
:102B600030E081E090E0A0E0B0E004C0880F991F61
:102B7000AA1FBB1F2A95D2F720917A28662341F01D
:102B8000822B80937A280C94901527E030E0E9CFCF
:102B900080958223F6CF0895CF93DF934091DA2872
:102BA00050E0EFE7F8E2ABE7B8E290E080E0219197
:102BB0002D93EF0121979A01082E02C03595279594
:102BC0000A94E2F72170288301968430910579F701
:102BD000DF91CF910895DC018D919C91DC01ED9105
:102BE000FC910190F081E02D09941F93CF93DF9326
:102BF0002150203118F587FF21C0D42F162FC82F60
:102C0000622F682B8091512D9091522D0E94EB15CF
:102C1000612F6F778091512D9091522D0E94EB156D
:102C2000CF7EC03C59F06D2F6F778091512D9091E0
:102C3000522DDF91CF911F910C94EB15DF91CF9125
:102C40001F910895FF920F931F93CF93DF93F62E5A
:102C5000062F10E0811139C08091DF2A8823A9F165
:102C60004CEB649FC00111248051914DEC01C1597E
:102C7000DF4F2881222349F19C014881442309F434
:102C80004BC024573F4FF90120812223F1F02D8DB5
:102C90002E8F1D8E0E9497139CEB909F9001919F09
:102CA000300D11242051314DF901EC56FF4F808336
:102CB0002B563F4FF90110821E8A81E08D8B1D82B9
:102CC0001E828FEF9FEF89839A83E0910E28F09107
:102CD0000F28E85AFF4F208140E06F2D80E80E94C6
:102CE000F515F801EC5AF54D108280910E2890915F
:102CF0000F28FC01EA5BFF4F2081211110C0865A8A
:102D00009F4F60E0FC0180819181DF91CF911F9105
:102D10000F91FF900C949F152091E22AB6CFDF917E
:102D2000CF911F910F91FF9008956D3F48F46A3F36
:102D300010F4683F39F4FC01808191810C94EB150B
:102D40006E3FC8F70895813E10F40C94F515883F46
:102D500028F0682F81E59DE20C94951608958F92D6
:102D60009F92AF92BF92CF92DF92EF92FF9210921A
:102D700085288091DC28813009F441C080F08230C0
:102D800009F489C08091E22A80938328FF90EF9014
:102D9000DF90CF90BF90AF909F908F9008958091DB
:102DA000200A9091210A40917128509172286091D7
:102DB000732870917428B0E0A0E084179507A607E7
:102DC000B70718F41092D42ADDCF8091200A909191
:102DD000210A841B950B8093200A9093210A91E08D
:102DE0009093D42A80915528892780935528882349
:102DF00049F268EF81E59DE20E949516C3CF80916C
:102E00005428811137C0809153288111DBCF0E9453
:102E10009805C090C837D090C937E090CA37F09075
:102E2000CB379B01AC012C193D094E095F096901A3
:102E30007A01E3E3F8E223E538E260E070E0CB01F9
:102E400081909190A190B190680D791D8A1D9B1D74
:102E50002E173F07A9F720E130E040E050E00E9444
:102E60006342C216D306E406F50608F4ABCF81E050
:102E7000809353281092542880910228909103281F
:102E80000196809302289093032881E08093D42AAE
:102E90001092552877CF90917B2881E0981709F4FC
:102EA00091CF90917F28992309F48CCF9091E22AB9
:102EB000992309F487CF8093D42A64CFFC01278912
:102EC000922F9170908F30E035952795992341F09E
:102ED00083E090E002C0880F991F2A95E2F70895D9
:102EE00082E090E0F7CF4F925F926F927F928F9245
:102EF0009F92AF92BF92CF92DF92EF92FF920F9389
:102F00001F93CF93DF93EC010E942914882349F08B
:102F1000FE01EE5AFF4F8081882399F0818188233A
:102F200081F0FE01E25AFF4F80818230D9F4C7550B
:102F3000DF4F82E090E0A0E0B0E088839983AA832D
:102F4000BB83DF91CF911F910F91FF90EF90DF90A6
:102F5000CF90BF90AF909F908F907F906F905F9039
:102F60004F900895FE01E556FF4F0190F081E02D4E
:102F70004080FE01E356FF4F0190F081E02D50802C
:102F80006E0121EBC20ED11CF601628010815E0140
:102F9000F2EBAF0EB11CF501F080712C4E01F2E5A1
:102FA0008F0E911CEE24E394E70CCE010E946D136A
:102FB000082F252D442D612F7F2D862D0E94021074
:102FC000682E162FF72E472FCE010E94FA1381117B
:102FD00023C020E1F29EC0011124912F982BF5010E
:102FE0008081F0E18F9F90011124F6018081822B76
:102FF000981791F0F4018281890F9927991F6081B8
:1030000070E00E942D422481358102C036952795BB
:103010008A95E2F720FF50C0F5016081F0E16F9FD3
:10302000C0011124F6016081682BFE01EA59FF4FAF
:103030008081F9ED8F9FC001112488539548680F56
:10304000792F711D90E080E00E943908F82ECE01A2
:1030500081599F4F8E0107551F4FFF2079F10E9424
:103060005E1740E1F49E90011124FC012E9FC001E7
:103070002F9F900D3E9F900D11246FEF70E00E94E6
:103080001942CB01B0E0A0E0F80180839183A283D4
:10309000B383F80180819181A281B3810297A10558
:1030A000B10508F04ECF82E090E0A0E0B0E0808370
:1030B0009183A283B38345CF7E2C74CFC85BDF4F4F
:1030C000288139812F3F310519F422E0E22EE70CE7
:1030D0000E945E176C0168817981072E000C880BB5
:1030E000990B0E94C94020E030E04FE753E40E9472
:1030F00098434B015C01EC9CB001ED9C700D1124D8
:1031000090E080E00E94C7409B01AC01C501B40182
:103110000E9404410E941144F801608371838283FC
:103120009383B7CF80918528809384281092852837
:103130008091E22A8093832881E08093E22A6AEFDB
:1031400081E59DE20C9495168091E22A8093832874
:103150001092E22A809185288093842881E08093D0
:1031600085286CEF81E59DE20C949516CF92DF9255
:10317000EF92FF920F931F93CF9321E02093542857
:10318000109253288091002890910128019666E0C2
:1031900070E00E942D428093002890930128809136
:1031A0003228811119C0209332280E94980560931B
:1031B000C8377093C9378093CA379093CB378091C3
:1031C000050A8C708093050ACF911F910F91FF9093
:1031D000EF90DF90CF9008950E949805C09131281C
:1031E0000C2F10E0F801EE0FFF1FEE0FFF1FED5C3C
:1031F000F74DC090C837D090C937E090CA37F090EB
:10320000CB376C197D098E099F0960837183828396
:1032100093830E949805000F111F0F5D174DC090FA
:10322000C837D090C937E090CA37F090CB379B01B0
:10323000AC012C193D094E095F0960E478E78DE780
:1032400091E00E944142F80120833183CF5FC77033
:10325000C0933128C111A9CFE1E2F8E290E080E00B
:1032600021913191820F931F28E2E133F207C1F7D8
:1032700097FD079623E0959587952A95E1F70E949B
:10328000331093CFDC01ED91FC910488F589E02D9A
:1032900023E030E00994282F803190F581E080937D
:1032A0004F2B81E090E0A0E0B0E004C0880F991FB0
:1032B000AA1FBB1F2A95D2F720914D2B30914E2B80
:1032C0004423F9F0282B392B20934D2B30934E2B90
:1032D00020914B2B30914C2B60FF19C0282B392BA0
:1032E00020934B2B30934C2B2091492B30914A2B20
:1032F00061FF13C0822B932B8093492B90934A2B11
:103300000895AC014095509524233523DDCFAC01C1
:103310004095509524233523E3CF809590958223C3
:103320009323EACFCF92DF92EF92FF920F931F93F6
:10333000CF93DF9300D000D0CDB7DEB7FC0168EEAD
:1033400073E00E941942CB012AE030E0B9010E94EB
:1033500019428983CF0164E670E00E941942CB01D3
:10336000B9010E9419428A83CF01B9010E94194212
:10337000482FCB01B9010E9419428B834C83CE01A7
:1033800001966C0180EEF82EF601E1906F011F2D81
:1033900000E0E01689F040E062E080E2043030F0C6
:1033A00061E0812F083018F463E080E1810F0E9412
:1033B0004B190F5F1C5FEDCFF394F4EEFF12E4CFD7
:1033C0002496CDBFDEBFDF91CF911F910F91FF906B
:1033D000EF90DF90CF9008958350990B9C0197FF59
:1033E00004C022273327281B390B22533343F9010A
:1033F000608140E097FF03C08CE00C944B198DE096
:10340000FCCFEF92FF920F931F93CF93DF938C012A
:10341000F62EE42ED0E0C0E0C8010C2E02C0969536
:1034200087950A94E2F780FF05C04E2D6F2D8C2FF3
:103430000E944B192196C031D10571F7DF91CF91D0
:103440001F910F91FF90EF9008958F929F92AF92EE
:10345000BF92CF92DF92EF92FF929C01332790E0D0
:1034600080E0812C912C540183942115310579F051
:1034700075016401022E04C0CC0CDD1CEE1CFF1C87
:103480000A94D2F78C299D2921503109EECF01965B
:10349000FF90EF90DF90CF90BF90AF909F908F9074
:1034A0000C94011A0F931F93CF93DF93CDB7DEB720
:1034B0002597CDBFDEBF8C0129833A834B835C8384
:1034C0006D8340E061E089819A810E94011A40E0A9
:1034D00063E08B819C810E94011AF801EA5AFF4F38
:1034E00041E063E0808191810E94011AF801E95670
:1034F000FF4F0190F081E02D80818F3F79F02D8189
:10350000918129130BC040E062E02596CDBFDEBF5C
:10351000DF91CF911F910F910C944B192596CDBF40
:10352000DEBFDF91CF911F910F910895EF92FF922F
:103530000F931F93362F41E050E060E070E07A0176
:103540008B0104C0EE0CFF1C001F111F8A95D2F7DF
:10355000C7012091512B332341F0822B8093512BB3
:103560001F910F91FF90EF90089580958223F6CFE1
:103570000F931F93CF93DF93EC010E94D405088132
:1035800019812A813B81601B710B820B930BDF91A8
:10359000CF911F910F910895CF92DF92EF92FF92FA
:1035A0000F931F93CF93DF93E090E82AF090E92ADE
:1035B000E701C170DD278091A82E811172C0809132
:1035C000A92E81116EC00E94CC118C01670126ECDE
:1035D000C22227ECD222867C977C892B09F4C0C0BA
:1035E0008091AC2E882349F187E99EE20E94B81AA7
:1035F0006A3F71058105910500F5007C1470011585
:103600001105D9F00038110571F1011584E0180792
:1036100069F10034110531F482E094E080931228BE
:10362000909313281092AC2EDF91CF911F910F91A0
:10363000FF90EF90DF90CF90089581E08093AC2EC3
:103640008093A72E809112289091132880931028A0
:1036500090931128C11421E0D20659F0E09212286B
:10366000F09213281AC083E094E0D8CF84E094E06D
:10367000D5CFE0910E28F0910F28E25AFF4FE0815C
:10368000F0E0EE0FFF1FE55DF243EC0FFD1F8081C0
:1036900090E0809312289093132887E99EE20E947D
:1036A000E0058091A72E811130C08091A92E811153
:1036B0002CC08091EA2A882309F490C08BE99EE20D
:1036C0000E94E0058091122890911328803891057E
:1036D00009F066C08093102890931128E0910E287D
:1036E000F0910F28E25AFF4FE081F0E0EE0FFF1F4C
:1036F000E55DF243EC0FFD1F808590E0809312287A
:103700009093132881E08093A82E8091A82E811198
:103710008BCF8091A72E811187CF2091E42A309101
:10372000E52A8091E62A9091E72A80959095822358
:103730009323892B09F46FC080911228909113284C
:103740008038910509F069C08FE99EE2DF91CF9141
:103750001F910F91FF90EF90DF90CF900C94E005B8
:103760008091A72E882309F49CCFCD2809F099CF0A
:1037700087E99EE20E94B81A6B3F710581059105A9
:1037800040F08091102890911128809312289093F6
:10379000132887E99EE20E94E0051092A72E81CFB0
:1037A0008034910551F4209709F4AFCF809310280D
:1037B0009093112881E490E0A1CF813022E092071C
:1037C00009F0A3CF809310289093112883E092E012
:1037D000209709F093CF82E092E090CF8091A82EBD
:1037E000882309F496CF8BE99EE20E94B81A6E37BF
:1037F00071058105910508F488CF209709F085CFE0
:10380000809110289091112880931228909313286A
:103810001092A82E7ACF232B81F1009112281091BB
:1038200013280038110509F0FFCE8FE99EE20E94AF
:10383000B81A653F71408105910508F4F5CE0093F3
:10384000102810931128E0910E28F0910F28E25AC9
:10385000FF4FE081F0E0EE0FFF1FE55DF243EC0F5C
:10386000FD1F808590E0809312289093132881E0BB
:103870008093A92E8093AB2ED7CE8091A92E88233A
:1038800009F4D2CE81E08093AA2E809110289091E5
:10389000112880931228909313288FE99EE20E94AA
:1038A000E0051092A92EC0CE8CEC97E30E94B81AC6
:1038B000643F714081059105A0F08091CC379091D3
:1038C000CD37A091CE37B091CF378C509E4FAF4FB0
:1038D000BF4F8093CC379093CD37A093CE37B09322
:1038E000CF378CEC97E30E94B81A21E06F31710555
:1038F0008105910508F020E0822F08958CEC97E374
:103900000E94B81A643F714081059105A0F0809132
:10391000CC379091CD37A091CE37B091CF378C5026
:103920009E4FAF4FBF4F8093CC379093CD37A0932E
:10393000CE37B093CF378CEC97E30E94B81A21E0D2
:103940006A3F71058105910508F020E0822F0895F6
:10395000AF92BF92CF92DF92EF92FF920F931F939D
:10396000CF93DF9300D0CDB7DEB7E0900E28F09074
:103970000F28C7010E946D138983A0901228B09070
:103980001328A11422E0B20609F058C087010B5A8F
:103990001F4F83E08A836E0182E0C80ED11C0E9413
:1039A000CC118115F0E29F0709F053C08091E22A03
:1039B000882309F44BC00E94A4188091DF2A8093C9
:1039C000DE2A6091DD2A6093DF2A61110EC0882310
:1039D00061F080910E2890910F28FC01EA5BFF4F67
:1039E0001082895B9F4FFC01108282E00E94961A30
:1039F0006091E22A80E00E94961A6091E12A81E0BB
:103A00000E94961AFA80F801E080F601D08010E05A
:103A1000F11609F450C003E0010F61E0D11608F47B
:103A200060E0802F0E94961AE11206C00E947E1C60
:103A3000682F802F0E94961A1F5FEACF84E08A8346
:103A4000FE0131966F0103EE1AE2A9CF0E9492188F
:103A5000B4CF811520E1920761F48091E12A91E0D1
:103A600089278093E12AC7010E9497138093E02A57
:103A7000A4CF8115984009F0A0CF8091E82A80FF5B
:103A800010C0A114F2E0BF0661F0C7010E946D13DF
:103A900061E0680F643008F060E0C7010E944813DD
:103AA0008CCFF80180818F5F80839A81891708F419
:103AB00084CF108282CF0F900F90DF91CF911F9112
:103AC0000F91FF90EF90DF90CF90BF90AF9008954F
:103AD000CF92DF92EF92FF92FC0130E8C32E36E9DD
:103AE000D32E38E9E32EF12C90E04C155D056E05E0
:103AF0007F0540F4F694E794D794C7949F5F96307F
:103B0000A1F797E084E08183892F8095282F217089
:103B100030E084E0220F331F8A95E1F79162922B07
:103B20009083FF90EF90DF90CF900895EF92FF92F7
:103B30001F93CF93DF9300D0CDB7DEB78F3F9807A9
:103B400049F19C013695279521707B0180FF2AC0A1
:103B50006894F7F81AE0120F60E0812F0E940005C8
:103B600040E05DE261E371E0CE0101960E94681DD4
:103B700069817A8188EF9BE20E941907C7019061F1
:103B80000E949C0161E0812F0E94000588EF9BE26A
:103B90000E9467060F900F90DF91CF911F91FF90C9
:103BA000EF900895E894F7F8D5CFCF92DF92EF9297
:103BB000FF920F931F93CF93DF93582FC62FD42FCD
:103BC0008091D82A882391F140E062E08FEF9FEF47
:103BD0000E94011A0E948F0A0E9498056B017C01C5
:103BE00020EAC20E26E8D21E21E0E21EF11C80EA85
:103BF000C81686E8D80681E0E806F10438F40E9489
:103C00009805C616D706E806F906C8F30E94980577
:103C10006C157D058E059F05C8F3DF91CF911F912F
:103C20000F91FF90EF90DF90CF900895511142C017
:103C30008091DF2A882309F43FC0E62EF12C4CEB5B
:103C4000649FC00111248051914D8C0101591F4F77
:103C5000F8012081222381F19C014081442339F124
:103C600024573F4FF9012081211126C0F801258DED
:103C7000268FC1E0C58F0E9497139CEB9E9D9001FB
:103C80009F9D300D11242051314DF901EC56FF4F0D
:103C900080832B563F4FF9011082F801168AC58B9D
:103CA000158216828FEF9FEF81839283B6CF20918A
:103CB000E22ADACF503161F0E0910E28F0910F281E
:103CC000E85AFF4F808191815817190609F0A5CF56
:103CD00000910E2810910F28F801E25AFF4FF08052
:103CE000DD2309F462C08091122890911328843852
:103CF000910541F48C2F6CE00E940D42892F60E009
:103D00000E94710BEC2FF0E0EC5AF54D81E08083BE
:103D10008091DF2A811181CFF801E85AFF4F20817D
:103D20004D2F6C2F80E90E94F515F1102BC0E0910A
:103D30000E28F0910F28E65AFF4F61E080819181B3
:103D40000E949F156C2F70E090E080E00E94C740B9
:103D50002CEA3AEA46E252E40E9404410E941144ED
:103D6000E0910E28F0910F28E45AFF4F8081918155
:103D7000DF91CF911F910F91FF90EF90DF90CF9047
:103D80000C94961DF2E0FF1248CFE0910E28F091BE
:103D90000F28E65AFF4F61E0808191810E949F15B4
:103DA00020E2D29FB0011124DBCFF11036CF8091F9
:103DB000DF2A811132CFF801E85AFF4F208140E01D
:103DC0006C2F80E80E94F51580910E2890910F28A5
:103DD000FC01EA5BFF4F208121111FCF865A9F4FC4
:103DE00060E0FC0180819181DF91CF911F910F9163
:103DF000FF90EF90DF90CF900C949F15CF93DF93BF
:103E000000D0CDB7DEB761E08AE00E94CC0461E06B
:103E10008BE00E94CC042A9A2B9A40E05DE261E399
:103E200071E0CE0101960E94681D89819A8180937C
:103E3000D0379093D13788EF9BE20E94480A0F90C9
:103E40000F90DF91CF910895FC0101900020E9F7D8
:103E50003197AF01481B590BBC0182E59BE20C94E2
:103E6000EE058F929F92AF92BF920F931F93CF93C5
:103E7000DF93CDB7DEB7A197CDBFDEBF19A2423029
:103E800008F44AE08E010F5D1F4F842E912CB12C57
:103E9000A12CA50194010E944142E62FB901CA015B
:103EA000EA30DCF4E05DD801EE938D01232B242B66
:103EB000252B79F790E080E0109719F0CD010E9452
:103EC000241FA196CDBFDEBFDF91CF911F910F912F
:103ED000BF90AF909F908F900895E95CE4CFCF930F
:103EE000DF930E94241FEC018BEA9DEC0E94241FAB
:103EF0008C0F9D1FDF91CF9108958F929F92AF926B
:103F0000BF92CF92DF92EF92FF920F931F93CF93C6
:103F1000DF933091E12A332309F4AAC03091DF2ADC
:103F20003111A6C0A22E872E962E8A01EC01E12E19
:103F3000F62EFC01E25AFF4F8081F696C080D180B8
:103F4000B2809091E22A911123C0811123C0809107
:103F5000E02A982F9F70C92ED82ED2942FE0D2221B
:103F6000B12C8F5F8093E02AAA2049F120E04D2DEB
:103F70006C2DCE010E94F30A292D382DA6016B2D40
:103F8000CE010E94E40C8EEA9DEC0E94241F02C028
:103F9000882351F32A2DA6016B2D80910E28909134
:103FA0000F28DF91CF911F910F91FF90EF90DF903D
:103FB000CF90BF90AF909F908F900C94600CE02FAB
:103FC0008CE0E89EE00D1124F0E0EE0FFF1FEC5AAC
:103FD000F64D808191812FEF289F4001299F900C01
:103FE000112480910E2890910F2881599F4F0E9493
:103FF0005E17BC0194E0660F771F9A95E1F7C40144
:104000000E9419426F3F710519F014F06FEF70E0D4
:10401000262FFE01EA5BFF4F3081FE0190E080E039
:10402000831718F5408104131DC041815281E416A5
:10403000F506C1F437E0389FF001399FF00D1124E7
:104040003496EC0FFD1F60814181CE010E94F30A7E
:1040500000E010E020E030E0A6016B2DCE010E94D0
:10406000E40C98CF01963796DBCF4FEF6FEFEDCF93
:10407000DF91CF911F910F91FF90EF90DF90CF9044
:10408000BF90AF909F908F900895CF92DF92EF9264
:10409000FF92CF93DF936C01990FEE08FF08F7FEB4
:1040A0001FC06DE282E59BE20E94B903EC01662726
:1040B0007727CB016C197D098E099F094AE00E9480
:1040C000311FC80FD91F8BEA9DEC0E94241F8C0F53
:1040D0009D1FDF91CF91FF90EF90DF90CF900895DB
:1040E0004AE0C701B6010E94311FEC01ECCFCF932B
:1040F000DF932EE630E046EE58E26DEB75E880E0A7
:1041000090E00E94CE07C6EED8E2888599850E948D
:10411000331088859985DF91CF910C9445202F929B
:104120003F924F925F926F927F928F929F92AF9247
:10413000BF92CF92DF92EF92FF920F931F93CF9394
:10414000DF93CDB7DEB7CA50D840CDBFDEBF482E13
:104150000E94D405512C712C612C32015524442429
:10416000C12CD12C76011E018FEF281A87EF380A57
:10417000812C912C5401D501C4018C0D9D1DAE1DC7
:10418000BF1DCA5FD74F88839983AA83BB83C6505C
:10419000D84060E08BE00E94320AD501C401840D52
:1041A000951DA61DB71DCE5FD74F88839983AA831F
:1041B000BB83C250D840CC5FD74F8881C450D84011
:1041C0000E949201CD5FD74F8881C350D8400E9492
:1041D0009201842D0E94920180E00E9492018E0142
:1041E0000F5F1F4FCE5FD74F0883C250D840C65FC6
:1041F000D74F1883CA50D84080E00E949201D8015E
:104200008D938D012A163B06B9F70E94100720E016
:1042100038E0CE5FD74F4881C250D840C65FD74FF5
:104220005881CA50D840CA5FD74F688179818A8146
:104230009B81C650D8400E949E08B8E09B0EA11CEE
:10424000B11C8114E0E89E06A104B10409F093CFEB
:104250000E947720D1011C92C701B6016A527F4F9C
:104260008F4F9F4F21E030E0A1010E949E08BAE3EA
:10427000CB0EBAE0DB1EE11CF11CEAE34E0EEAE0D5
:104280005E1E611C711CF8EBCF16FAE7DF06E10435
:10429000F10409F06DCFC65FD74FCDBFDEBFDF9110
:1042A000CF911F910F91FF90EF90DF90CF90BF9033
:1042B000AF909F908F907F906F905F904F903F90C6
:1042C0002F900895EF92FF921F93CF93DF93D09199
:1042D000532DD13140F010E0812FDF91CF911F910C
:1042E000FF90EF900895E091512DF091522D808133
:1042F0009181DC01ED91FC910084F185E02D09951F
:10430000892B49F38091F62D8E7F8093F62DE091D5
:10431000512DF091522D80819181DC01ED91FC9124
:104320000284F385E02D0995C82F8D3FA1F280917D
:104330005B2D90915C2D009709F0F7C0C093562D2E
:104340001091542D812F0E949C120E94AA12882342
:1043500061F0C7FD0AC01093562DC093572D81E020
:1043600090E080935B2D90935C2DC091562D8C2F07
:104370000E949C12813F09F4A1C0C8F5803B39F02E
:1043800048F4803921F0803A11F0803851F423E06C
:1043900030E096C0803D09F491C0D0F4803C09F42F
:1043A0008DC08091F62D81608093F62DE091292DAE
:1043B000F0912A2D309709F0099510925B2D1092FB
:1043C0005C2D1092592D10925A2D1092542D83CF9E
:1043D000803EE9F2803F29F720E830E02093592D14
:1043E00030935A2D1092542D8093662D6DC0873FC7
:1043F00099F308F05CC0833F09F460C040F2863F47
:1044000081F68093632D1092622D1092642D10928C
:10441000652D81E08093E62D10925B2D10925C2D2E
:104420001092592D10925A2D8091632D803939F4B4
:104430008091652D811103C080E88093632D809168
:10444000632D8058813638F48091622DD81719F089
:1044500010E0D11103C00E940A0211E09091612D79
:10446000392F317090FF38CF892F8E7F09F434CFE8
:104470008091632D20E8280F213608F02AC1209171
:10448000622DD21719F031E0D11130E096959230BB
:1044900009F418C1933009F419C1913009F01CCF07
:1044A0004091652D6091642D0E94A31615CF8D3F1C
:1044B00008F4A7CF8E3F08F0A4CF73CF22E030E0FE
:1044C0002093592D30935A2D20915B2D30915C2DE6
:1044D0004091592D50915A2D4150510924173507BB
:1044E000E8F08093632DCF70CF5FC093622D8091F1
:1044F000572D8093642D1092652D81E090E080937C
:10450000E72D9093E82D10925B2D10925C2D109268
:10451000592D10925A2D8093E62D86CF2F5F3F4F55
:1045200020935B2D30935C2DD6CEC7FF0CC0CD3FC2
:1045300008F04BC0C83F08F04BC0C03F09F457C05B
:10454000C73F09F454C02091562DFC01E95DF24D9E
:10455000203F19F0273F09F073C0C7AFE090592DF5
:10456000F0905A2D9701215031098217930708F4D2
:10457000A7C01091562D103F19F0173F09F062C0E7
:10458000C091E52D80EF8093E52D8093632D80E829
:104590008093642D1092652D1092622D80E890E03A
:1045A0008093E72D9093E82D81E08093E62D0E9483
:1045B0000A0287EF8093662DC093672D82E090E01A
:1045C00080935B2D90935C2D86CECE3F08F4BBCFBD
:1045D000C093632D1092642D1092652D1092622D60
:1045E00081E090E08093E72D9093E82D94CF209187
:1045F000662D203F19F0273F09F0D3CE9C012F5F95
:104600003F4F895D924DFC01C7AF80EF8093632DD2
:104610002093642D3093652D1092622D2093E72D09
:104620003093E82D81E08093E62D10925B2D10925F
:104630005C2D1092592D10925A2D1092542DF4CEBB
:10464000C7A78CCF812F0E949C12C82F8093632D07
:104650000E94AA12882349F1812F8F708F5F809367
:10466000622D8091572D8093642D8091582DF3E019
:10467000EF16F10409F080E08093652D10925B2D18
:1046800010925C2D1092592D10925A2D81E080933A
:10469000E62DC03B39F060F4C03921F0C03A11F08A
:1046A000C03859F61093542DBFCE1092622DD9CF39
:1046B000C03DC1F3C03EB1F3C03C09F0BECFF2CF64
:1046C00001967ECF332309F407CEEACE311104CE12
:1046D000E7CEE0E1E80FE03108F0FECDF0E0ED5884
:1046E000FC4D0C9482428923D623B823A6236C2147
:1046F0006C2183236C2183236C21832383238323D5
:104700006C2183238323682F81E59DE20E94951607
:10471000E3CDE090642DF090652D81E8E816F1047A
:1047200018F090E8E92EF12CC7E2DDE2CE018752C5
:104730009D428E159F0508F0CFCD6FAD8091512D14
:104740009091522D0E94EB152196F0CFC091642DCF
:1047500063EF8091512D9091522D0E94EB156C2F9B
:104760006F778091512D9091522D0E94EB15B4CD11
:10477000C091652DA0E8CA9FE00111248091642DAD
:10478000C82B62EF8091512D9091522D0E94EB1514
:104790006C2F6F778091512D9091522D0E94EB15C7
:1047A000CC0FCD2FCC1FDD0BD195D9CF6091642DCF
:1047B000B0E16B9FB00111246077C091652DCF707F
:1047C000C62B61EF8091512D9091522D0E94EB15D7
:1047D0006C2FC7CF0F931F93CF93DF93EC0188818A
:1047E0009981009759F02A813B812617370730F0CD
:1047F00081E0DF91CF911F910F9108958B016F5F41
:104800007F4F0E949845009759F0888399830A83C7
:104810001B832C813D81232B59F7FC011082E8CFAB
:1048200080E0E7CFEF92FF920F931F93CF93DF9338
:104830006115710541F480E0DF91CF911F910F91D7
:10484000FF90EF90089541155105B1F07B01EC0107
:104850000C811D81040F151FB8010E94EA238823D3
:1048600051F3288139818C819D81B701820F931F7B
:104870000E945E460C831D8381E0DECFEF92FF92A3
:104880000F931F93CF93DF93EC017B018A01BA0151
:104890000E94EA2328813981811114C02115310534
:1048A00019F0C9010E940F45188219821C821D82CD
:1048B0001A821B82CE01DF91CF911F910F91FF9041
:1048C000EF9008950C831D83B701C9010E945E46D5
:1048D000F1CFFC01108211821282138214821582A0
:1048E000FB0101900020E9F73197AF01461B570B00
:1048F0000C943E248F929F92AF92BF92DF92EF92E0
:10490000FF920F931F93CF93DF93CDB7DEB76297DC
:10491000CDBFDEBF8C01DC018C9111969C9111976B
:10492000891710F411968C936BEB7DECCE010796F2
:104930000E946924F801E1806DEB7DECCE010D96BB
:104940000E946924D801FC9011968C91F81A198262
:104950001A821B821C821D821E826D857E856115D6
:10496000710531F049895A89CE0101960E943E2491
:10497000DF2CDE18EF1470F0DE2CDF186F817885E5
:104980006115710571F14B855C85CE010D960E9414
:104990003E24EF2C4D815E8169817A81CE0107969C
:1049A0000E94122489819A810E940F45B1E0BE15B0
:1049B00010F4BD15A0F06DEA7DECCE0101960E94C9
:1049C0006924FF24F394EF14C8F04B855C856F8154
:1049D0007885CE0101960E941224F394F4CFFD2C29
:1049E000B6CF8D859E85009711F00E940F451D86DC
:1049F0001E86198A1A8A1F86188ACBCFFF24F39441
:104A0000DF1480F52D813E8189819A81D12C812C02
:104A1000912C54018394ED2DF0E0E217F307A0F5FB
:104A2000E80FF91F009721F410925628E6E5F8E206
:104A3000B501A4010D2C04C0440F551F661F771F3C
:104A40000A94D2F7D8011496ED90FC901597E08166
:104A5000E13391F44E295F2914964D935C93159799
:104A6000D394D9CF49895A896D857E85CE01019627
:104A70000E941224F394C4CF409550954E215F219B
:104A8000F80144835583ECCF0E940F458D859E85A8
:104A90000E940F458F8198850E940F456296CDBF79
:104AA000DEBFDF91CF911F910F91FF90EF90DF90CC
:104AB000BF90AF909F908F9008952F923F924F920A
:104AC0005F926F927F928F929F92AF92BF92CF929E
:104AD000DF92EF92FF920F931F93CF93DF93CDB7A7
:104AE000DEB76297CDBFDEBF1C014A015B0129839F
:104AF0003A832F3F3F4F09F0D0C00F5F1F4F9FEF0A
:104B0000291A390AA1E0B0E0AB83BC8319821A826A
:104B1000098B1A8B0F30110524F42FE030E0298B1C
:104B20003A8BA989BA89BD01BB0F880B990B0E94EA
:104B3000C9402B013C0120E030E040E05FE30E94EF
:104B400004412BED3FE049E450E40E949843A50165
:104B500094010E9498436D837E838F839887809110
:104B60006D2890916E28A0916F28B09170288D8744
:104B70009E87AF87B88B6091762870917728072E33
:104B8000000C880B990B0E94C9406B017C0160915D
:104B9000782870917928072E000C880B990B0E94B9
:104BA000C940A70196010E9439432BED3FE049E43B
:104BB00050E40E94BA4269877A878B879C8760930A
:104BC0006D2870936E2880936F2890937028698960
:104BD0007A8975956795072E000C880B990B0E94B2
:104BE000C940A50194010E9498430E940A446B01A8
:104BF000698B7A8BA5019401C301B2010E9498438D
:104C00000E940A442B012D813E814F815885698580
:104C10007A858B859C850E9404410E940A444B0141
:104C20002D813E814F8158856D857E858F85988940
:104C30000E9404410E940A44861A970AD194C194A2
:104C4000D1088C149D0464F5840C951C820C931C73
:104C5000081519053CF0840129813A8182169306D2
:104C60000CF48901C801AB81BC818A1B9B0B629645
:104C7000CDBFDEBFDF91CF911F910F91FF90EF90DD
:104C8000DF90CF90BF90AF909F908F907F906F906C
:104C90005F904F903F902F9008951B821C8238CFD9
:104CA000A989BA89A815B9058CF684189508CECFBC
:104CB0001F920F920FB60F9211248F939F93AF9371
:104CC000BF938091D92A9091DA2AA091DB2AB091E2
:104CD000DC2A0196A11DB11D8093D92A9093DA2A6E
:104CE000A093DB2AB093DC2A81E08093A60ABF91CF
:104CF000AF919F918F910F900FBE0F901F901895BD
:104D00001F920F920FB60F9211242F933F934F9340
:104D10005F936F937F938F939F93AF93BF93EF9323
:104D2000FF9385E00E941B06FF91EF91BF91AF9129
:104D30009F918F917F916F915F914F913F912F91B3
:104D40000F900FBE0F901F9018951F920F920FB6E5
:104D50000F9211242F933F934F935F936F937F9301
:104D60008F939F93AF93BF93EF93FF9384E00E9441
:104D70001B06FF91EF91BF91AF919F918F917F9112
:104D80006F915F914F913F912F910F900FBE0F90B8
:104D90001F9018951F920F920FB60F9211242F9308
:104DA0003F934F935F936F937F938F939F93AF93B3
:104DB000BF93EF93FF9383E00E941B06FF91EF9157
:104DC000BF91AF919F918F917F916F915F914F9123
:104DD0003F912F910F900FBE0F901F9018951F922B
:104DE0000F920FB60F9211242F933F934F935F931F
:104DF0006F937F938F939F93AF93BF93EF93FF93A3
:104E000082E00E941B06FF91EF91BF91AF919F91AD
:104E10008F917F916F915F914F913F912F910F9063
:104E20000FBE0F901F9018951F920F920FB60F9202
:104E300011242F933F934F935F936F937F938F939F
:104E40009F93AF93BF93EF93FF9381E00E941B0664
:104E5000FF91EF91BF91AF919F918F917F916F9152
:104E60005F914F913F912F910F900FBE0F901F9028
:104E700018951F920F920FB60F9211242F933F9304
:104E80004F935F936F937F938F939F93AF93BF9352
:104E9000EF93FF9380E00E941B06FF91EF91BF917B
:104EA000AF919F918F917F916F915F914F913F91C2
:104EB0002F910F900FBE0F901F9018951F920F9279
:104EC0000FB60F9211242F933F934F935F936F93DD
:104ED0007F938F939F93AF93BF93EF93FF9387EF4E
:104EE0009DE20E947403FF91EF91BF91AF919F915A
:104EF0008F917F916F915F914F913F912F910F9083
:104F00000FBE0F901F9018951F920F920FB60F9221
:104F100011242F933F934F935F936F937F938F93BE
:104F20009F93AF93BF93EF93FF9387EF9DE20E9410
:104F30004C06FF91EF91BF91AF919F918F917F911F
:104F40006F915F914F913F912F910F900FBE0F90F6
:104F50001F9018951F920F920FB60F9211242F9346
:104F60003F934F935F936F937F938F939F93AF93F1
:104F7000BF93EF93FF9382E59BE20E947403FF913E
:104F8000EF91BF91AF919F918F917F916F915F91C1
:104F90004F913F912F910F900FBE0F901F9018953A
:104FA0001F920F920FB60F9211242F933F934F939E
:104FB0005F936F937F938F939F93AF93BF93EF9381
:104FC000FF9382E59BE20E944C06FF91EF91BF9117
:104FD000AF919F918F917F916F915F914F913F9191
:104FE0002F910F900FBE0F901F901895FC0140E875
:104FF00056E968E970E090E09F5F963011F497E021
:105000000BC07695679557954795413089E05807CD
:105010008DE36807710580F784E08183892F80958F
:10502000282F217030E084E0220F331F8A95E1F7AA
:105030009162922B90830895CF93DF93EC010E94AD
:10504000D405688379838A839B83DF91CF91089508
:10505000CF92DF92FF920F931F93CF93DF93EC01D8
:10506000FC01EA5BFF4F10823196108231968FE788
:1050700090E0808391833296108211823296FF24D1
:10508000FA94F0826E018DE4C80ED11CF6011082F4
:10509000359680E180831182128214821582749683
:1050A00060833196128213821482369610821182A6
:1050B0008E0101591F4F81E0F80180838FEF9FEF30
:1050C0008183928383839483858396831782C80127
:1050D00008960E941C28F801108A85E0878B108EA4
:1050E000118E128E138E148E158E168EB59610821A
:1050F00011821282F082DE01A956BF4FED93FC931C
:10510000119712961C929E0126563F4F8FE0F9018F
:105110008083CE0185569F4FFC01A083B1831496F6
:105120002D933C933496C082D1823496F08231968E
:105130001082118212823996108234961082118266
:1051400012823396108231961082319610823196F7
:1051500080E5808331968FE78083C654DF4F84E2F9
:105160008883DF91CF911F910F91FF90DF90CF90B7
:105170000895DF92EF92FF920F931F93CF93DF93E7
:10518000C7EFDDE21A821B8248EE53E060E070E078
:105190004C835D836E837F8321E93DEC28833983D3
:1051A00080E298E08C879D871FE01E878EE08F87C6
:1051B000188A83E1E82EE98A82E18A8B94E09B8B4E
:1051C0001C8A1D8A1E8A1F8A188E198EEBE1EA8FAF
:1051D0001B8E1C8EE2E5FBE2128213824483558310
:1051E000668377832083318320E038E02487358706
:1051F000FF24F394F6861786108A25E0D22ED18AF2
:10520000928BF38A148A158A168A178A108E118E49
:10521000828F138E148E8FEE9BE20E94F627E8EFAA
:10522000FBE21582148210929E2C10939F2C1092F8
:10523000202D07E31CE2D801ED93FC9389E39CE267
:105240000E94F6278DE090E0F8018483958387EE35
:1052500093E08683978380E092E1AAE7B0E08087BD
:105260009187A287B38786EF9BE20E94F627E1EF42
:10527000FBE2E082118212820CEB1EE2D801FC926A
:10528000EE24EA94FE2C1196ED92FC92129713965E
:10529000ED92FC9214971596ED92FC921697179644
:1052A0001C9284EC9EE20E941C28F801108AD78A86
:1052B000108E118E128E138E148E158E168E87E917
:1052C0009EE20E941C288BE99EE20E941C288FE926
:1052D0009EE20E941C2883EA9EE20E941C28E6E9C6
:1052E000FEE2118A128A138A148A158A168A118E8E
:1052F000168E13A2C093942ED093952EE7E2FDE272
:1053000010821182128213821482158216821782F1
:1053100010861186128613861486158616861786C1
:10532000108A118A128A138A148A158A168A178A91
:10533000108E118E128E138E148E158E168E178E61
:1053400010A211A212A213A214A215A216A217A2B1
:1053500010A611A684E99EE282A793A714A615A61B
:1053600016A612AA13AA14AA15AAE6AAF7AAE0AECC
:10537000F1AE83E08093612D13AE14AE15AE16AE80
:105380001092E62DE6E6FDE280E8DF011D928A95A7
:10539000E9F71092E92D1092EA2D1092EB2D109260
:1053A000EC2D1092ED2D1092EE2D1092EF2D10920B
:1053B000F02D1092F12D1092F22D1092F32D1092EB
:1053C000F42D1092F52D1092F62D60E080EF9EE204
:1053D0000E94282861E08CEA9FE20E94282862E06F
:1053E00088E690E30E94282863E084E291E30E942B
:1053F000282864E080EE91E30E94282865E08CE98B
:1054000092E30E94282866E088E593E30E9428281A
:1054100067E084E194E30E94282868E080ED94E34B
:105420000E94282869E08CE895E30E9428286AE019
:1054300088E496E30E9428286BE084E097E30E94CA
:1054400028280E9498056093E12E7093E22E8093A5
:10545000E32E9093E42E0E94D4056093DD2E70938A
:10546000DE2E8093DF2E9093E02E0E94D405609371
:10547000C4377093C5378093C6379093C7370E945F
:10548000D4056093C0377093C1378093C23790932F
:10549000C3370E9498056093C8377093C9378093CB
:1054A000CA379093CB370E94D4056093CC37709362
:1054B000CD378093CE379093CF3740E05DE261E304
:1054C00071E080ED97E3DF91CF911F910F91FF90F5
:1054D000EF90DF900C94681DCF93DF93CDB7DEB7CC
:1054E0006597CDBFDEBF88ED90E084BF90936100EB
:1054F000809102068660809302068091000681609A
:1055000080930006809102068F7C8065809302065E
:105510001092E20582E08093E40581E08093030A23
:105520008EEF8093270A8093260A80E880932D0AC5
:1055300080932B0A8093290A80932C0A80932A0A4D
:105540008093280A8BE08093000A87E08093E5052A
:10555000E0E8FAE037E02EEF90E885E03183248739
:10556000958780837096E03C4AE0F407B9F7109283
:10557000A10A8FE19EE48093AC0A9093AD0A8091DA
:10558000A50A81608093A50A1092A00A8091A00AC2
:1055900081608093A00A789440E052EC61E070E072
:1055A00082E59BE20E9442198FEB9DEC0E946F1FE7
:1055B0000E94F0010E94F0010E94F0010E94F0019F
:1055C000E091512DF091522D80819181DC01ED917E
:1055D000FC910288F389E02D42E15AE760E070E037
:1055E00009951092532D1092552D1092542D109212
:1055F0005B2D10925C2D1092592D10925A2D0FEFA9
:105600001FEF00935D2D10935E2D00935F2D10937F
:10561000602D0E94D4056093E92D7093EA2D80934C
:10562000EB2D9093EC2D1092E62D1092632D10929D
:10563000622D1092642D1092652D1092E72D10921C
:10564000E82D8091612D8170826081608093612D51
:1056500086EB98E18093432D9093442D82E998E165
:105660008093452D9093462D84EA98E180934B2DAD
:1056700090934C2D1092030A1092010A0093260A6F
:105680001093270A86EF94E00E9433101092E22ACA
:105690000E94FE1E61E082E00E94CC0461E08CE08A
:1056A0000E94CC0461E086E20E94CC0461E087E2C3
:1056B0000E94CC040A9A2C9AE0E088E08695EF5F7D
:1056C000E63011F08130D1F7F0E0EE52F343808103
:1056D0008093000A61E086E20E94CC0460E086E2EA
:1056E0000E946D0461E087E20E94CC0460E087E2E2
:1056F0000E946D0488EF9BE20E94480A40E060E04F
:105700008FEF9FEF0E94011A0E948F0A8091800400
:105710008F608093800462E086E10E94CC0462E0A6
:1057200087E10E94CC0462E082E10E94CC04809177
:105730007004806880937004809171048068809305
:1057400071040E94FE1E10927A2861E089E00E9496
:10575000CC04299A0E94901560E085E20E94CC0456
:1057600060E084E20E94CC048CE08093060611E0A5
:10577000109308060E948F058F5F914080937828D0
:10578000909379288DE080930606109308060E9476
:105790008F058F5F9140809376289093772861E002
:1057A00080E10E94CC044A9A61E081E10E94CC042D
:1057B0004B9A8091372C9091382C0E94480A409146
:1057C0003F2C5091402C6091412C7091422CCE0185
:1057D00001960E94681D89819A818093392C90934B
:1057E0003A2C61E080913B2C0E94050561E080919C
:1057F0003B2C0E9400051092452C1092462C1092D2
:10580000472C1092482C1092492C10924A2C10923E
:105810004B2C10924C2C10924D2C80913D2C909141
:105820003E2C873EB3E09B0741F061E00E940505F6
:1058300061E080913D2C0E94000580E190E0809322
:10584000432C9093442C86E00E9479086091392C77
:1058500070913A2C8091372C9091382C0E94190726
:1058600060E080913B2C0E94000581E00E94920143
:1058700080E80E94920161E080913B2C0E9400052B
:105880008091372C9091382C0E9467060E946D08F9
:105890008111FCCF86E00E9479080E944A0881FFAE
:1058A00003C084E00E94790861E08091F12B0E949E
:1058B000050588EF9BE20E94480A40E059E06DE34D
:1058C00070E0CE0101960E94681D89819A818093C3
:1058D000F62B9093F72B0E94100760E08BEA0E9452
:1058E000320A0E9410078091F22B9091F32B892BA2
:1058F00009F47DC00E94130A8FE90E94920180E0A2
:105900000E949201082F10E0102F002780E00E94D3
:105910009201082B0E9410078091F22B9091F32B9B
:105920008017910709F463C085EC9DEC0E946F1FFE
:1059300000E110E00E94E61101501109D9F70E9420
:10594000CC1A00EF1EE2F12CE12CE0E56E2EFFE711
:105950005F2EAA24A394A2E04A2EB9ED7B2EBE2C82
:105960008091E82A9091E92A019709F0B8C08091C6
:10597000DD2A882309F4B3C060E0C8010E94D51372
:105980006FE0C8010E94B013D12CC12CEC2DEF7038
:105990003E2E460174E0959487947A95E1F720E0D5
:1059A000482D6E2FC8010E94F30A30E020E0432DFD
:1059B000582D60E0C8010E94B20C20E0432D582D04
:1059C00060E0C8010E94600CFFEFCF1ADF0A20E4FC
:1059D000C216D104D9F6D801A25ABF4FF801E15935
:1059E000FF4F33E03B15D0F01C9210821DC061E0E8
:1059F00081E00E94320A80E00E9492010E9410071A
:105A00000E94230A682F70E090E080E042E00E944C
:105A1000311F8BEA9DEC0E94241F8ACF47E04B1573
:105A200008F455C14C92A082F801E058FF4F108253
:105A3000319710823396108231971082C8010E94EC
:105A4000A50DF801E85AFF4FC701019680839183A5
:105A500068018AE5C80ED11CD6018D919C918E15E6
:105A60009F0531F08F3F980719F060E00E949F1565
:105A7000F601E082F182F801E45AFF4FC701019775
:105A8000808391833896B08260E0C8010E94D5136C
:105A90006FE0C8010E94B01360E0C8010E94481383
:105AA000F801E857FF4F80819181D801A657BF4F79
:105AB0008D939C9310821182BF96608231965082A2
:105AC000C8010E949A09C8010E945D09D12C6D2D60
:105AD000C8010E94830FD394FCE0DF12F8CFA80125
:105AE000445B5F4FF801EA59FF4F6081679DB00149
:105AF00011246357744890E080E021E030E00E9478
:105B0000CE07C8010E94750D86EF94E00E947515BE
:105B10002FEFE21AF20A04541F4F3CE0E316F1049F
:105B200009F01DCF0E94772080E00E94BF118823DA
:105B300061F08FE00E94BF11882339F081E08093EB
:105B4000D82A8EEE9DEC0E946F1F85ED9DE180931B
:105B50002D2D90932E2D8DEE95E08093312D9093E9
:105B6000322D82E296E180932B2D90932C2D87ECA1
:105B700095E8DC01A65EB842AA8BBB8B0E94E611B9
:105B80000E94CC1A0E94AF160E9462210E94A81C9B
:105B90000E9426130E948F0A40E060E08FEF9FEF83
:105BA0000E94011A0E94CE100E94CC158091D82A22
:105BB000882309F48EC00E94E6110E94CC1A0E942C
:105BC000AF160E9462210E94A81C0E94CE100E9463
:105BD000CC150E9426130E948F0A40E060E08FEFF0
:105BE0009FEF0E94011A0FEF1FE030E020E043E337
:105BF00053E363E37FE38091D62A9091D72A0E94F2
:105C00005D258093D62A9093D72A40E063E0892FC0
:105C1000990F990B0E94251A10E000E0F02E802FBA
:105C20000E94BF11682FC8010E949F15802F0E94FB
:105C3000BF11882391F040E063E0802F0E944B1950
:105C40006091D62A7091D72AC8010E94961D21E042
:105C50004FE7602F80E90E94F5158091E82A909126
:105C6000E92A002E02C0969587950A94E2F780FFF4
:105C700005C040E062E08F2D0E944B190F5F1F4F5F
:105C80000031110559F610E000E0E090DA28F12C1F
:105C9000002E02C0F594E7940A94E2F76E2D61702D
:105CA000C8010E949F15E0FE05C040E063E0802F20
:105CB0000E944B196091D62A7091D72AC8010E9480
:105CC000961D0F5F1F4F04301105F9F66FCFAC9290
:105CD0008CCE56E3C52E5FE2D52E64E8E62E6FE249
